{
  "_format": "hh-sol-artifact-1",
  "contractName": "SimpleBankingSystem",
  "sourceName": "contracts/Assessment.sol",
  "abi": [
    {
      "anonymous": false,
      "inputs": [
        {
          "indexed": false,
          "internalType": "address",
          "name": "accountHolder",
          "type": "address"
        }
      ],
      "name": "AccountCreated",
      "type": "event"
    },
    {
      "anonymous": false,
      "inputs": [
        {
          "indexed": false,
          "internalType": "address",
          "name": "accountHolder",
          "type": "address"
        },
        {
          "indexed": false,
          "internalType": "uint256",
          "name": "amount",
          "type": "uint256"
        }
      ],
      "name": "Deposited",
      "type": "event"
    },
    {
      "anonymous": false,
      "inputs": [
        {
          "indexed": false,
          "internalType": "address",
          "name": "from",
          "type": "address"
        },
        {
          "indexed": false,
          "internalType": "address",
          "name": "to",
          "type": "address"
        },
        {
          "indexed": false,
          "internalType": "uint256",
          "name": "amount",
          "type": "uint256"
        }
      ],
      "name": "Transferred",
      "type": "event"
    },
    {
      "anonymous": false,
      "inputs": [
        {
          "indexed": false,
          "internalType": "address",
          "name": "accountHolder",
          "type": "address"
        },
        {
          "indexed": false,
          "internalType": "uint256",
          "name": "amount",
          "type": "uint256"
        }
      ],
      "name": "Withdrawn",
      "type": "event"
    },
    {
      "inputs": [
        {
          "internalType": "address",
          "name": "",
          "type": "address"
        }
      ],
      "name": "balances",
      "outputs": [
        {
          "internalType": "uint256",
          "name": "",
          "type": "uint256"
        }
      ],
      "stateMutability": "view",
      "type": "function"
    },
    {
      "inputs": [],
      "name": "createAccount",
      "outputs": [],
      "stateMutability": "nonpayable",
      "type": "function"
    },
    {
      "inputs": [],
      "name": "deposit",
      "outputs": [],
      "stateMutability": "payable",
      "type": "function"
    },
    {
      "inputs": [],
      "name": "getBalance",
      "outputs": [
        {
          "internalType": "uint256",
          "name": "",
          "type": "uint256"
        }
      ],
      "stateMutability": "view",
      "type": "function"
    },
    {
      "inputs": [
        {
          "internalType": "address",
          "name": "to",
          "type": "address"
        },
        {
          "internalType": "uint256",
          "name": "amount",
          "type": "uint256"
        }
      ],
      "name": "transfer",
      "outputs": [],
      "stateMutability": "nonpayable",
      "type": "function"
    },
    {
      "inputs": [
        {
          "internalType": "uint256",
          "name": "amount",
          "type": "uint256"
        }
      ],
      "name": "withdraw",
      "outputs": [],
      "stateMutability": "nonpayable",
      "type": "function"
    }
  ],
  "bytecode": "0x608060405234801561001057600080fd5b50610c97806100206000396000f3fe6080604052600436106100555760003560e01c806312065fe01461005a57806327e235e3146100855780632e1a7d4d146100c25780639dca362f146100eb578063a9059cbb14610102578063d0e30db01461012b575b600080fd5b34801561006657600080fd5b5061006f610135565b60405161007c91906106f1565b60405180910390f35b34801561009157600080fd5b506100ac60048036038101906100a7919061076f565b61017b565b6040516100b991906106f1565b60405180910390f35b3480156100ce57600080fd5b506100e960048036038101906100e491906107c8565b610193565b005b3480156100f757600080fd5b5061010061032f565b005b34801561010e57600080fd5b50610129600480360381019061012491906107f5565b6103e9565b005b610133610605565b005b60008060003373ffffffffffffffffffffffffffffffffffffffff1673ffffffffffffffffffffffffffffffffffffffff16815260200190815260200160002054905090565b60006020528060005260406000206000915090505481565b600081116101d6576040517f08c379a00000000000000000000000000000000000000000000000000000000081526004016101cd906108b8565b60405180910390fd5b806000803373ffffffffffffffffffffffffffffffffffffffff1673ffffffffffffffffffffffffffffffffffffffff168152602001908152602001600020541015610257576040517f08c379a000000000000000000000000000000000000000000000000000000000815260040161024e90610924565b60405180910390fd5b806000803373ffffffffffffffffffffffffffffffffffffffff1673ffffffffffffffffffffffffffffffffffffffff16815260200190815260200160002060008282546102a59190610973565b925050819055503373ffffffffffffffffffffffffffffffffffffffff166108fc829081150290604051600060405180830381858888f193505050501580156102f2573d6000803e3d6000fd5b507f7084f5476618d8e60b11ef0d7d3f06914655adb8793e28ff7f018d4c76d505d533826040516103249291906109b6565b60405180910390a150565b60008060003373ffffffffffffffffffffffffffffffffffffffff1673ffffffffffffffffffffffffffffffffffffffff16815260200190815260200160002054146103b0576040517f08c379a00000000000000000000000000000000000000000000000000000000081526004016103a790610a2b565b60405180910390fd5b7f805996f252884581e2f74cf3d2b03564d5ec26ccc90850ae12653dc1b72d1fa2336040516103df9190610a4b565b60405180910390a1565b600073ffffffffffffffffffffffffffffffffffffffff168273ffffffffffffffffffffffffffffffffffffffff1603610458576040517f08c379a000000000000000000000000000000000000000000000000000000000815260040161044f90610ab2565b60405180910390fd5b6000811161049b576040517f08c379a000000000000000000000000000000000000000000000000000000000815260040161049290610b44565b60405180910390fd5b806000803373ffffffffffffffffffffffffffffffffffffffff1673ffffffffffffffffffffffffffffffffffffffff16815260200190815260200160002054101561051c576040517f08c379a000000000000000000000000000000000000000000000000000000000815260040161051390610924565b60405180910390fd5b806000803373ffffffffffffffffffffffffffffffffffffffff1673ffffffffffffffffffffffffffffffffffffffff168152602001908152602001600020600082825461056a9190610973565b92505081905550806000808473ffffffffffffffffffffffffffffffffffffffff1673ffffffffffffffffffffffffffffffffffffffff16815260200190815260200160002060008282546105bf9190610b64565b925050819055507fd1ba4ac2e2a11b5101f6cb4d978f514a155b421e8ec396d2d9abaf0bb02917ee3383836040516105f993929190610b98565b60405180910390a15050565b60003411610648576040517f08c379a000000000000000000000000000000000000000000000000000000000815260040161063f90610c41565b60405180910390fd5b346000803373ffffffffffffffffffffffffffffffffffffffff1673ffffffffffffffffffffffffffffffffffffffff16815260200190815260200160002060008282546106969190610b64565b925050819055507f2da466a7b24304f47e87fa2e1e5a81b9831ce54fec19055ce277ca2f39ba42c433346040516106ce9291906109b6565b60405180910390a1565b6000819050919050565b6106eb816106d8565b82525050565b600060208201905061070660008301846106e2565b92915050565b600080fd5b600073ffffffffffffffffffffffffffffffffffffffff82169050919050565b600061073c82610711565b9050919050565b61074c81610731565b811461075757600080fd5b50565b60008135905061076981610743565b92915050565b6000602082840312156107855761078461070c565b5b60006107938482850161075a565b91505092915050565b6107a5816106d8565b81146107b057600080fd5b50565b6000813590506107c28161079c565b92915050565b6000602082840312156107de576107dd61070c565b5b60006107ec848285016107b3565b91505092915050565b6000806040838503121561080c5761080b61070c565b5b600061081a8582860161075a565b925050602061082b858286016107b3565b9150509250929050565b600082825260208201905092915050565b7f5769746864726177616c20616d6f756e74206d7573742062652067726561746560008201527f72207468616e2030000000000000000000000000000000000000000000000000602082015250565b60006108a2602883610835565b91506108ad82610846565b604082019050919050565b600060208201905081810360008301526108d181610895565b9050919050565b7f496e73756666696369656e742062616c616e6365000000000000000000000000600082015250565b600061090e601483610835565b9150610919826108d8565b602082019050919050565b6000602082019050818103600083015261093d81610901565b9050919050565b7f4e487b7100000000000000000000000000000000000000000000000000000000600052601160045260246000fd5b600061097e826106d8565b9150610989836106d8565b92508282039050818111156109a1576109a0610944565b5b92915050565b6109b081610731565b82525050565b60006040820190506109cb60008301856109a7565b6109d860208301846106e2565b9392505050565b7f4163636f756e7420616c72656164792065786973747300000000000000000000600082015250565b6000610a15601683610835565b9150610a20826109df565b602082019050919050565b60006020820190508181036000830152610a4481610a08565b9050919050565b6000602082019050610a6060008301846109a7565b92915050565b7f496e76616c696420726563697069656e74206164647265737300000000000000600082015250565b6000610a9c601983610835565b9150610aa782610a66565b602082019050919050565b60006020820190508181036000830152610acb81610a8f565b9050919050565b7f5472616e7366657220616d6f756e74206d75737420626520677265617465722060008201527f7468616e20300000000000000000000000000000000000000000000000000000602082015250565b6000610b2e602683610835565b9150610b3982610ad2565b604082019050919050565b60006020820190508181036000830152610b5d81610b21565b9050919050565b6000610b6f826106d8565b9150610b7a836106d8565b9250828201905080821115610b9257610b91610944565b5b92915050565b6000606082019050610bad60008301866109a7565b610bba60208301856109a7565b610bc760408301846106e2565b949350505050565b7f4465706f73697420616d6f756e74206d7573742062652067726561746572207460008201527f68616e2030000000000000000000000000000000000000000000000000000000602082015250565b6000610c2b602583610835565b9150610c3682610bcf565b604082019050919050565b60006020820190508181036000830152610c5a81610c1e565b905091905056fea264697066735822122078055def1c595628de8df2cf20b175fc923bfad82f3311b911a9b2e78c747ab764736f6c63430008110033",
  "linkReferences": {},
  "deployedLinkReferences": {}
}