{
  "_format": "hh-sol-artifact-1",
  "contractName": "TicketBooking",
  "sourceName": "contracts/Assessment.sol",
  "abi": [
    {
      "inputs": [],
      "stateMutability": "nonpayable",
      "type": "constructor"
    },
    {
      "anonymous": false,
      "inputs": [
        {
          "indexed": false,
          "internalType": "uint256",
          "name": "ticketId",
          "type": "uint256"
        },
        {
          "indexed": false,
          "internalType": "address",
          "name": "owner",
          "type": "address"
        },
        {
          "indexed": false,
          "internalType": "string",
          "name": "eventName",
          "type": "string"
        },
        {
          "indexed": false,
          "internalType": "uint256",
          "name": "seatNumber",
          "type": "uint256"
        }
      ],
      "name": "TicketBooked",
      "type": "event"
    },
    {
      "anonymous": false,
      "inputs": [
        {
          "indexed": false,
          "internalType": "uint256",
          "name": "ticketId",
          "type": "uint256"
        }
      ],
      "name": "TicketCancelled",
      "type": "event"
    },
    {
      "anonymous": false,
      "inputs": [
        {
          "indexed": false,
          "internalType": "uint256",
          "name": "ticketId",
          "type": "uint256"
        },
        {
          "indexed": false,
          "internalType": "uint256",
          "name": "newSeatNumber",
          "type": "uint256"
        }
      ],
      "name": "TicketUpdated",
      "type": "event"
    },
    {
      "inputs": [
        {
          "internalType": "uint256",
          "name": "_ticketId",
          "type": "uint256"
        },
        {
          "internalType": "string",
          "name": "_eventName",
          "type": "string"
        },
        {
          "internalType": "uint256",
          "name": "_seatNumber",
          "type": "uint256"
        }
      ],
      "name": "bookTicket",
      "outputs": [],
      "stateMutability": "nonpayable",
      "type": "function"
    },
    {
      "inputs": [
        {
          "internalType": "uint256",
          "name": "_ticketId",
          "type": "uint256"
        }
      ],
      "name": "cancelTicket",
      "outputs": [],
      "stateMutability": "nonpayable",
      "type": "function"
    },
    {
      "inputs": [],
      "name": "getAllTickets",
      "outputs": [
        {
          "components": [
            {
              "internalType": "uint256",
              "name": "id",
              "type": "uint256"
            },
            {
              "internalType": "address",
              "name": "owner",
              "type": "address"
            },
            {
              "internalType": "string",
              "name": "eventName",
              "type": "string"
            },
            {
              "internalType": "uint256",
              "name": "seatNumber",
              "type": "uint256"
            }
          ],
          "internalType": "struct TicketBooking.Ticket[]",
          "name": "",
          "type": "tuple[]"
        }
      ],
      "stateMutability": "view",
      "type": "function"
    },
    {
      "inputs": [
        {
          "internalType": "uint256",
          "name": "_ticketId",
          "type": "uint256"
        }
      ],
      "name": "getTicket",
      "outputs": [
        {
          "components": [
            {
              "internalType": "uint256",
              "name": "id",
              "type": "uint256"
            },
            {
              "internalType": "address",
              "name": "owner",
              "type": "address"
            },
            {
              "internalType": "string",
              "name": "eventName",
              "type": "string"
            },
            {
              "internalType": "uint256",
              "name": "seatNumber",
              "type": "uint256"
            }
          ],
          "internalType": "struct TicketBooking.Ticket",
          "name": "",
          "type": "tuple"
        }
      ],
      "stateMutability": "view",
      "type": "function"
    },
    {
      "inputs": [],
      "name": "owner",
      "outputs": [
        {
          "internalType": "address",
          "name": "",
          "type": "address"
        }
      ],
      "stateMutability": "view",
      "type": "function"
    },
    {
      "inputs": [
        {
          "internalType": "uint256",
          "name": "",
          "type": "uint256"
        }
      ],
      "name": "ticketIdToTicket",
      "outputs": [
        {
          "internalType": "uint256",
          "name": "id",
          "type": "uint256"
        },
        {
          "internalType": "address",
          "name": "owner",
          "type": "address"
        },
        {
          "internalType": "string",
          "name": "eventName",
          "type": "string"
        },
        {
          "internalType": "uint256",
          "name": "seatNumber",
          "type": "uint256"
        }
      ],
      "stateMutability": "view",
      "type": "function"
    },
    {
      "inputs": [
        {
          "internalType": "uint256",
          "name": "",
          "type": "uint256"
        }
      ],
      "name": "tickets",
      "outputs": [
        {
          "internalType": "uint256",
          "name": "id",
          "type": "uint256"
        },
        {
          "internalType": "address",
          "name": "owner",
          "type": "address"
        },
        {
          "internalType": "string",
          "name": "eventName",
          "type": "string"
        },
        {
          "internalType": "uint256",
          "name": "seatNumber",
          "type": "uint256"
        }
      ],
      "stateMutability": "view",
      "type": "function"
    },
    {
      "inputs": [
        {
          "internalType": "uint256",
          "name": "_ticketId",
          "type": "uint256"
        },
        {
          "internalType": "uint256",
          "name": "_newSeatNumber",
          "type": "uint256"
        }
      ],
      "name": "updateTicket",
      "outputs": [],
      "stateMutability": "nonpayable",
      "type": "function"
    }
  ],
  "bytecode": "0x608060405234801561001057600080fd5b50336000806101000a81548173ffffffffffffffffffffffffffffffffffffffff021916908373ffffffffffffffffffffffffffffffffffffffff160217905550611aef806100606000396000f3fe608060405234801561001057600080fd5b50600436106100885760003560e01c8063853977381161005b57806385397738146101415780638da5cb5b1461015d578063ee355b1f1461017b578063fee345191461019757610088565b806303e96fe31461008d578063059b43c4146100ab57806350b44712146100de5780637dc379fa14610111575b600080fd5b6100956101b3565b6040516100a29190611051565b60405180910390f35b6100c560048036038101906100c091906110b3565b61030e565b6040516100d59493929190611148565b60405180910390f35b6100f860048036038101906100f391906110b3565b6103e6565b6040516101089493929190611148565b60405180910390f35b61012b600480360381019061012691906110b3565b6104ce565b60405161013891906111f7565b60405180910390f35b61015b6004803603810190610156919061134e565b61069e565b005b6101656108e8565b60405161017291906113bd565b60405180910390f35b610195600480360381019061019091906110b3565b61090c565b005b6101b160048036038101906101ac91906113d8565b610c24565b005b60606001805480602002602001604051908101604052809291908181526020016000905b828210156103055783829060005260206000209060040201604051806080016040529081600082015481526020016001820160009054906101000a900473ffffffffffffffffffffffffffffffffffffffff1673ffffffffffffffffffffffffffffffffffffffff1673ffffffffffffffffffffffffffffffffffffffff16815260200160028201805461026a90611447565b80601f016020809104026020016040519081016040528092919081815260200182805461029690611447565b80156102e35780601f106102b8576101008083540402835291602001916102e3565b820191906000526020600020905b8154815290600101906020018083116102c657829003601f168201915b50505050508152602001600382015481525050815260200190600101906101d7565b50505050905090565b60026020528060005260406000206000915090508060000154908060010160009054906101000a900473ffffffffffffffffffffffffffffffffffffffff169080600201805461035d90611447565b80601f016020809104026020016040519081016040528092919081815260200182805461038990611447565b80156103d65780601f106103ab576101008083540402835291602001916103d6565b820191906000526020600020905b8154815290600101906020018083116103b957829003601f168201915b5050505050908060030154905084565b600181815481106103f657600080fd5b90600052602060002090600402016000915090508060000154908060010160009054906101000a900473ffffffffffffffffffffffffffffffffffffffff169080600201805461044590611447565b80601f016020809104026020016040519081016040528092919081815260200182805461047190611447565b80156104be5780601f10610493576101008083540402835291602001916104be565b820191906000526020600020905b8154815290600101906020018083116104a157829003601f168201915b5050505050908060030154905084565b6104d6610da7565b81600073ffffffffffffffffffffffffffffffffffffffff166002600083815260200190815260200160002060010160009054906101000a900473ffffffffffffffffffffffffffffffffffffffff1673ffffffffffffffffffffffffffffffffffffffff160361057c576040517f08c379a0000000000000000000000000000000000000000000000000000000008152600401610573906114c4565b60405180910390fd5b60026000848152602001908152602001600020604051806080016040529081600082015481526020016001820160009054906101000a900473ffffffffffffffffffffffffffffffffffffffff1673ffffffffffffffffffffffffffffffffffffffff1673ffffffffffffffffffffffffffffffffffffffff16815260200160028201805461060a90611447565b80601f016020809104026020016040519081016040528092919081815260200182805461063690611447565b80156106835780601f1061065857610100808354040283529160200191610683565b820191906000526020600020905b81548152906001019060200180831161066657829003601f168201915b50505050508152602001600382015481525050915050919050565b600073ffffffffffffffffffffffffffffffffffffffff166002600085815260200190815260200160002060010160009054906101000a900473ffffffffffffffffffffffffffffffffffffffff1673ffffffffffffffffffffffffffffffffffffffff1614610743576040517f08c379a000000000000000000000000000000000000000000000000000000000815260040161073a90611530565b60405180910390fd5b600060405180608001604052808581526020013373ffffffffffffffffffffffffffffffffffffffff16815260200184815260200183815250905060018190806001815401808255809150506001900390600052602060002090600402016000909190919091506000820151816000015560208201518160010160006101000a81548173ffffffffffffffffffffffffffffffffffffffff021916908373ffffffffffffffffffffffffffffffffffffffff160217905550604082015181600201908161081091906116fc565b5060608201518160030155505080600260008681526020019081526020016000206000820151816000015560208201518160010160006101000a81548173ffffffffffffffffffffffffffffffffffffffff021916908373ffffffffffffffffffffffffffffffffffffffff160217905550604082015181600201908161089791906116fc565b50606082015181600301559050507f1b72f7adf3e36fb4d2eadbce3807a33bc05487f28ffe792f3faa712312d774d6843385856040516108da9493929190611148565b60405180910390a150505050565b60008054906101000a900473ffffffffffffffffffffffffffffffffffffffff1681565b803373ffffffffffffffffffffffffffffffffffffffff166002600083815260200190815260200160002060010160009054906101000a900473ffffffffffffffffffffffffffffffffffffffff1673ffffffffffffffffffffffffffffffffffffffff16146109b1576040517f08c379a00000000000000000000000000000000000000000000000000000000081526004016109a89061181a565b60405180910390fd5b600260008381526020019081526020016000206000808201600090556001820160006101000a81549073ffffffffffffffffffffffffffffffffffffffff0219169055600282016000610a049190610de5565b6003820160009055505060005b600180549050811015610be8578260018281548110610a3357610a3261183a565b5b90600052602060002090600402016000015403610bd55760008190505b60018080549050610a619190611898565b811015610b5d5760018082610a7691906118cc565b81548110610a8757610a8661183a565b5b906000526020600020906004020160018281548110610aa957610aa861183a565b5b9060005260206000209060040201600082015481600001556001820160009054906101000a900473ffffffffffffffffffffffffffffffffffffffff168160010160006101000a81548173ffffffffffffffffffffffffffffffffffffffff021916908373ffffffffffffffffffffffffffffffffffffffff16021790555060028201816002019081610b3c9190611916565b50600382015481600301559050508080610b55906119fe565b915050610a50565b506001805480610b7057610b6f611a46565b5b60019003818190600052602060002090600402016000808201600090556001820160006101000a81549073ffffffffffffffffffffffffffffffffffffffff0219169055600282016000610bc49190610de5565b600382016000905550509055610be8565b8080610be0906119fe565b915050610a11565b507f90a5808be5f77b4a2e0aa0389f433983252aabf738204c5c421fc59e5ecdaeea82604051610c189190611a75565b60405180910390a15050565b813373ffffffffffffffffffffffffffffffffffffffff166002600083815260200190815260200160002060010160009054906101000a900473ffffffffffffffffffffffffffffffffffffffff1673ffffffffffffffffffffffffffffffffffffffff1614610cc9576040517f08c379a0000000000000000000000000000000000000000000000000000000008152600401610cc09061181a565b60405180910390fd5b600060026000858152602001908152602001600020905082816003018190555060005b600180549050811015610d67578460018281548110610d0e57610d0d61183a565b5b90600052602060002090600402016000015403610d54578360018281548110610d3a57610d3961183a565b5b906000526020600020906004020160030181905550610d67565b8080610d5f906119fe565b915050610cec565b507fd9046deb2b2ba673296e160733a0c20f0cfb35766c2ec2c2563ca71642e7a9f68484604051610d99929190611a90565b60405180910390a150505050565b604051806080016040528060008152602001600073ffffffffffffffffffffffffffffffffffffffff16815260200160608152602001600081525090565b508054610df190611447565b6000825580601f10610e035750610e22565b601f016020900490600052602060002090810190610e219190610e25565b5b50565b5b80821115610e3e576000816000905550600101610e26565b5090565b600081519050919050565b600082825260208201905092915050565b6000819050602082019050919050565b6000819050919050565b610e8181610e6e565b82525050565b600073ffffffffffffffffffffffffffffffffffffffff82169050919050565b6000610eb282610e87565b9050919050565b610ec281610ea7565b82525050565b600081519050919050565b600082825260208201905092915050565b60005b83811015610f02578082015181840152602081019050610ee7565b60008484015250505050565b6000601f19601f8301169050919050565b6000610f2a82610ec8565b610f348185610ed3565b9350610f44818560208601610ee4565b610f4d81610f0e565b840191505092915050565b6000608083016000830151610f706000860182610e78565b506020830151610f836020860182610eb9565b5060408301518482036040860152610f9b8282610f1f565b9150506060830151610fb06060860182610e78565b508091505092915050565b6000610fc78383610f58565b905092915050565b6000602082019050919050565b6000610fe782610e42565b610ff18185610e4d565b93508360208202850161100385610e5e565b8060005b8581101561103f57848403895281516110208582610fbb565b945061102b83610fcf565b925060208a01995050600181019050611007565b50829750879550505050505092915050565b6000602082019050818103600083015261106b8184610fdc565b905092915050565b6000604051905090565b600080fd5b600080fd5b61109081610e6e565b811461109b57600080fd5b50565b6000813590506110ad81611087565b92915050565b6000602082840312156110c9576110c861107d565b5b60006110d78482850161109e565b91505092915050565b6110e981610e6e565b82525050565b6110f881610ea7565b82525050565b600082825260208201905092915050565b600061111a82610ec8565b61112481856110fe565b9350611134818560208601610ee4565b61113d81610f0e565b840191505092915050565b600060808201905061115d60008301876110e0565b61116a60208301866110ef565b818103604083015261117c818561110f565b905061118b60608301846110e0565b95945050505050565b60006080830160008301516111ac6000860182610e78565b5060208301516111bf6020860182610eb9565b50604083015184820360408601526111d78282610f1f565b91505060608301516111ec6060860182610e78565b508091505092915050565b600060208201905081810360008301526112118184611194565b905092915050565b600080fd5b600080fd5b7f4e487b7100000000000000000000000000000000000000000000000000000000600052604160045260246000fd5b61125b82610f0e565b810181811067ffffffffffffffff8211171561127a57611279611223565b5b80604052505050565b600061128d611073565b90506112998282611252565b919050565b600067ffffffffffffffff8211156112b9576112b8611223565b5b6112c282610f0e565b9050602081019050919050565b82818337600083830152505050565b60006112f16112ec8461129e565b611283565b90508281526020810184848401111561130d5761130c61121e565b5b6113188482856112cf565b509392505050565b600082601f83011261133557611334611219565b5b81356113458482602086016112de565b91505092915050565b6000806000606084860312156113675761136661107d565b5b60006113758682870161109e565b935050602084013567ffffffffffffffff81111561139657611395611082565b5b6113a286828701611320565b92505060406113b38682870161109e565b9150509250925092565b60006020820190506113d260008301846110ef565b92915050565b600080604083850312156113ef576113ee61107d565b5b60006113fd8582860161109e565b925050602061140e8582860161109e565b9150509250929050565b7f4e487b7100000000000000000000000000000000000000000000000000000000600052602260045260246000fd5b6000600282049050600182168061145f57607f821691505b60208210810361147257611471611418565b5b50919050565b7f5469636b657420646f6573206e6f742065786973740000000000000000000000600082015250565b60006114ae6015836110fe565b91506114b982611478565b602082019050919050565b600060208201905081810360008301526114dd816114a1565b9050919050565b7f5469636b657420616c726561647920626f6f6b65640000000000000000000000600082015250565b600061151a6015836110fe565b9150611525826114e4565b602082019050919050565b600060208201905081810360008301526115498161150d565b9050919050565b60008190508160005260206000209050919050565b60006020601f8301049050919050565b600082821b905092915050565b6000600883026115b27fffffffffffffffffffffffffffffffffffffffffffffffffffffffffffffffff82611575565b6115bc8683611575565b95508019841693508086168417925050509392505050565b6000819050919050565b60006115f96115f46115ef84610e6e565b6115d4565b610e6e565b9050919050565b6000819050919050565b611613836115de565b61162761161f82611600565b848454611582565b825550505050565b600090565b61163c61162f565b61164781848461160a565b505050565b5b8181101561166b57611660600082611634565b60018101905061164d565b5050565b601f8211156116b05761168181611550565b61168a84611565565b81016020851015611699578190505b6116ad6116a585611565565b83018261164c565b50505b505050565b600082821c905092915050565b60006116d3600019846008026116b5565b1980831691505092915050565b60006116ec83836116c2565b9150826002028217905092915050565b61170582610ec8565b67ffffffffffffffff81111561171e5761171d611223565b5b6117288254611447565b61173382828561166f565b600060209050601f8311600181146117665760008415611754578287015190505b61175e85826116e0565b8655506117c6565b601f19841661177486611550565b60005b8281101561179c57848901518255600182019150602085019450602081019050611777565b868310156117b957848901516117b5601f8916826116c2565b8355505b6001600288020188555050505b505050505050565b7f596f7520646f206e6f74206f776e2074686973207469636b6574000000000000600082015250565b6000611804601a836110fe565b915061180f826117ce565b602082019050919050565b60006020820190508181036000830152611833816117f7565b9050919050565b7f4e487b7100000000000000000000000000000000000000000000000000000000600052603260045260246000fd5b7f4e487b7100000000000000000000000000000000000000000000000000000000600052601160045260246000fd5b60006118a382610e6e565b91506118ae83610e6e565b92508282039050818111156118c6576118c5611869565b5b92915050565b60006118d782610e6e565b91506118e283610e6e565b92508282019050808211156118fa576118f9611869565b5b92915050565b60008154905061190f81611447565b9050919050565b8181036119245750506119fc565b61192d82611900565b67ffffffffffffffff81111561194657611945611223565b5b6119508254611447565b61195b82828561166f565b6000601f83116001811461198a5760008415611978578287015490505b61198285826116e0565b8655506119f5565b601f19841661199887611550565b96506119a386611550565b60005b828110156119cb578489015482556001820191506001850194506020810190506119a6565b868310156119e857848901546119e4601f8916826116c2565b8355505b6001600288020188555050505b5050505050505b565b6000611a0982610e6e565b91507fffffffffffffffffffffffffffffffffffffffffffffffffffffffffffffffff8203611a3b57611a3a611869565b5b600182019050919050565b7f4e487b7100000000000000000000000000000000000000000000000000000000600052603160045260246000fd5b6000602082019050611a8a60008301846110e0565b92915050565b6000604082019050611aa560008301856110e0565b611ab260208301846110e0565b939250505056fea2646970667358221220c840e5d028d4d2d7670e4e17206aa5d7583fd68a9f1764d68cd032c15ac9288264736f6c63430008110033",
  "linkReferences": {},
  "deployedLinkReferences": {}
}